:020000040000FA
:1000000048040020D5000000F5000000F7000000C3
:1000100000000000000000000000000000000000E0
:10002000000000000000000000000000F9000000D7
:100030000000000000000000FB000000FD000000C8
:10004000FF000000FF000000FF000000FF000000B4
:10005000FF000000FF000000FF000000FF000000A4
:10006000FF000000FF000000FF000000FF00000094
:100070002D070000FF000000FF000000FF0000004F
:10008000FF000000FF000000FF000000FF00000074
:10009000FF000000FF000000FF000000FF00000064
:1000A000FF000000FF000000FF000000FF00000054
:1000B000FF000000FF000000FF000000FF00000044
:1000C0000348854600F042F80048004785080000D4
:1000D000480400200A480B4901600B4901600B49A4
:1000E00001600B4A0B491160002101600A488047FA
:1000F0000A480047FEE7FEE7FEE7FEE7FEE7FEE709
:1001000000010050590000001600000088000000A7
:1001100024000050A55A000029070000C10000007B
:1001200030B50B46014600202022012409E00D468F
:10013000D5409D4205D31D469540491B2546954017
:1001400040191546521E002DF1DC30BD064C01252C
:10015000064E05E0E36807CC2B430C3C984710346F
:10016000B442F7D3FFF7B0FF300A0000500A000096
:100170001FB509491EC903946C460EC4810F8A003D
:1001800069468A58054951184A68C306DB0E0120A2
:10019000984002434A601FBDE00900000002005081
:1001A000F0B507000C46564885B054490162554EDB
:1001B000016813D0042211430160102000F0B6F949
:1001C0000120C00402905048042503904F48504934
:1001D000201888420DD8002004901CE00122114311
:1001E0000160104600F0A2F900200225039602905B
:1001F000ECE7484848492018884203D801206400A9
:10020000049008E04548454920184942884249D8A9
:100210000320A40004900026F643002000900190E3
:1002200021E029460398FFF77BFF3D493D4A4118ED
:10023000914217D20222354B014651435B1CCF1825
:100240005B429F420AD8A14201D90B1B00E0631A0E
:10025000B34203D21E000095019203D03249521CD2
:100260008A42E8D96D1C212DDBD9049802998003BC
:1002700008430099012249029202891A0843019910
:10028000891E08431E490862042000F04FF90499B2
:100290000098491C41430398FFF742FF01994843E6
:1002A00005B0F0BD002F0FD0204915480162042091
:1002B00000F03CF91EA0006800901148016A00138C
:1002C000014203D00020EBE71A49EEE7080300D50E
:1002D0000D4E880301D53046E2E70804800F6A46D8
:1002E000105CCA058904C90E891CD20D4143B008AF
:1002F000921C5043FFF714FF8000D1E7000001007B
:1003000000020050001BB70000805101FF1E0AFAD6
:10031000FFE0F5057F0F05FD7FF0FA02C08782FE42
:10032000FF95E7FFBF77CC00010200006FD6000009
:10033000010202042EC2000002490A6802430A6058
:10034000704700000002005008B511A0006800903E
:100350001048016A0013014201D0002008BD0803C3
:1003600001D50D4800E00D488A03F7D40A04920F26
:100370006B469B5CCA058904D20DC90E891C800896
:10038000921C59435043FFF7CBFE800008BD00008C
:10039000010202040002005000805101001BB7005E
:1003A000F8B51B4CE56810210D401A49884202D867
:1003B0004910884200D20846216804263143216052
:1003C000E168C906FCD52169072211432161216A30
:1003D0000122120411432162E168C907014604D0D9
:1003E0000020FFF7DDFE074607E00120C004FFF70D
:1003F000D7FEE5680746102005400021022000F0E6
:100400000BF8002D02D12068B04320603846F8BDBB
:100410000002005080F0FA0270B5104CE56810261A
:100420002268354004231A432260E268D206FCD5D4
:10043000226907231A432261A269120912010A43A1
:10044000A261216999430143216100F025F9002D42
:1004500002D12068B043206070BD0000000200504F
:10046000F0B52C4B86B01C460834F0CC009401AC9F
:10047000E0C418CB0493430E05945B0734D083008B
:100480009B0F9B006C46E358234C1B190401650F1E
:10049000C401E40EA5401C68AC430C431C601E4B19
:1004A0001E4C103BA04207D1DD69FF240134A54357
:1004B00021400D43DD6117E0194CA04203D1DC69F6
:1004C00001256D020CE0174CA04203D1DC69012527
:1004D000AD0205E0144CA04206D1DC690125ED0215
:1004E000AC4329400C43DC61830A1906090E0FD086
:1004F0000103890F890004AC6158074C800508345A
:100500000919DBB2C00E83400868984310430860A5
:1005100006B0F0BDC8090000100200501400C0571A
:100520001500E057160040661700606610B50446D7
:100530000749084B05E00A46491E002A01DC002055
:1005400010BDDA6820469043F5D1012010BD0000AF
:10055000804F120000020050F0B5002301273C46F6
:100560009C400C4208D005685C000326A640B543B9
:100570001646A640354305605B1C102BEFD3F0BD3B
:1005800010B5E1218901024800F0E6F810BD000035
:100590000000054010B5032280211148FFF7DCFF61
:1005A0000F4C0322403C02212046FFF7D5FF0322D7
:1005B00004212046FFF7D0FF032208212046FFF741
:1005C000CBFF074C0121C03C032209032046FFF763
:1005D000C3FF0121032249032046FFF7BDFF10BDE1
:1005E000C040005070B559211622144C882002E0FA
:1005F0002160226020602368012BF9D10120FFF7E0
:100600009BFE0120FFF792FF0D48FFF7C9FE0D4D3D
:100610002846FFF7ADFD0122520200212846FFF7D0
:100620001FFF05200007416B012211434163416B0D
:100630000222114341630020206070BD0001005080
:1006400080F0FA02103D80571248C069002814D08B
:10065000104840384168002911D08168002910D025
:10066000C06800280FD00B48C038016B00290CD09F
:10067000406B00280BD000207047012070470220FB
:1006800070470320704704207047052070470620FC
:1006900070470000C042005038B51DA000681D4CD6
:1006A0000090216A2013014201D0002016E00803C7
:1006B00001D5194800E019488A030FD40A04920FA3
:1006C0006B469B5CCA058904D20DC90E891C800843
:1006D000921C59435043FFF723FD8000104DA86042
:1006E00021694907490F022903D0880029460C31A6
:1006F0000858A1690907090F491CFFF711FD0949AD
:1007000028604A108018FFF70BFD686038BD0000B4
:10071000010202040002005000805101001BB700DA
:100720000000002040420F00704700000848C169E7
:10073000C2690A40D10709D00649012382695204DF
:1007400004D402688A6B5A408A63F7E77047000056
:100750000000054000420050F0B504461C480D461C
:100760000FC885B06E460FC61A48416980698A0174
:100770000321960F0005070F00202063E160A068A9
:1007800015490840A060012E02D1FFF7DDFD019060
:10079000002D1BD0B10068464058791CFFF7C0FC03
:1007A0000646690840182946FFF7BAFC0B49801E27
:1007B000884207D9E90070182946FFF7B1FC000903
:1007C000801E02E0032109070843606205B0F0BD06
:1007D000000A0000000200500FFFF0FFFFFF0000C2
:1007E00070B5044600200125AD070CE0002304E0AD
:1007F0005B1CAB4201D3002070BDA669F600F7D5A3
:100800000B5C2360401C9042F0D170BD02E008C830
:10081000121F08C1002AFAD170477047002001E07A
:1008200001C1121F002AFBD17047000010B5134A06
:10083000134811780170D178417053680021082B5A
:1008400000D1516054680723641C00D153601479AF
:1008500084709468082C00D191609468641C00D165
:100860009360137AC3705278027141718171C171C2
:1008700001722A214172024810BD00002C000020A4
:1008800038000020FFF7AEFE4B4C012291032046BA
:10089000FFF762FE0122D1032046FFF75DFEFFF75E
:1008A00079FEFFF76DFE454C0020A063444D0727FD
:1008B0006860A860A8700126FFF7C6FE01280CD06A
:1008C00002281BD003282AD0042839D0052848D074
:1008D000062855D0002863D064E0A6636868401EEF
:1008E0006860EF70FFF7A2FF01460A223548FFF764
:1008F00077FFFFF7A9FE0028FBD153E0A6636868E5
:10090000401C6860EF70FFF791FF01460A222D48F6
:10091000FFF766FFFFF798FE0028FBD142E0A663D1
:10092000A868401CA860EF70FFF780FF01460A220C
:100930002448FFF755FFFFF787FE0028FBD131E081
:10094000A663A868401EA860EF70FFF76FFF01461E
:100950000A221C48FFF744FFFFF776FE0028FBD170
:1009600020E0A6630220E870FFF760FF01460A223C
:100970001448FFF735FFFFF767FE0028FBD111E0B1
:10098000A6636878012802D0022803D003E0022081
:10099000687000E06E70FFF757FE0028FBD101E0A1
:1009A0000020A0636878012803D0022884D1E66380
:1009B00082E70020E0637FE70040005000420050E3
:1009C0002C00002000000540000000002000000076
:1009D00000000000040000000C00000024000000E3
:1009E00000000000040000002C00000000000000D7
:1009F00000000000040000002C00000000000000C7
:100A0000001BB70000000000000000000080510142
:100A1000001BB70000000000000000000080510132
:100A2000001BB70000000000000000000080510122
:100A3000500A000000000020380000000C080000F0
:100A4000880A000038000020100400001C08000084
:100A500080F0FA023200000080F0FA02001BB700BA
:100A60000080000080F0FA02102700000000000063
:100A700000000000000000000080510102010000A1
:080A800000000000000000006E
:04000005000000D522
:00000001FF
